:100000000C945D010C947E010C947E010C947E0195
:100010000C947E010C947E010C947E010C947E0164
:100020000C947E010C947E010C947E010C947E0154
:100030000C947E010C947E010C947E010C947E0144
:100040000C947E010C947E010C947E010C947E0134
:100050000C947E010C947E010C947E010C947E0124
:100060000C947E010C947E010C947E010C947E0114
:100070000C947E010C947E010C947E010C947E0104
:100080000C947E010C947E010C947E010C947E01F4
:100090000C947E010C947E010C947E010C94CA0297
:1000A0000C947E010C947E010C947E010C947E01D4
:1000B0000C947E010C947E010C947E010C947E01C4
:1000C0000C947E010C947E010C947E010C947E01B4
:1000D0000C947E010C947E010C947E010C947E01A4
:1000E0000C947E0180031203120312031203120305
:1000F0001203120328031203120312031203120342
:1001000012031203FA03120312031203120312035F
:100110001203120325031203120312031203120324
:1001200012031203400312031203120312031203F9
:100130001203120328031203120312031203120301
:1001400012031203400312031203120312031203D9
:1001500012031203400312031203120312031203C9
:10016000120312034E0312031203120312031203AB
:1001700012031203400312031203120312031203A9
:100180001203120365031203120312031203120374
:1001900012031203DD0312031203120312031203EC
:1001A00012031203EF0312031203120312031203CA
:1001B00012031203EF0312031203120312031203BA
:1001C00012031203EF0312031203120312031203AA
:1001D00012031203EF03120312031203120312039A
:1001E00012031203A80312031203120312031203D1
:1001F00012031203CA03120312031203120312039F
:1002000012031203A80312031203120312031203B0
:1002100012031203CA03120312031203120312037E
:1002200012031203880312031203120312031203B0
:1002300012031203EB02120312031203120312033E
:1002400012031203EB02120312031203120312032E
:1002500012031203EE02120312031203120312031B
:100260001203120377031203120312031203120381
:100270001203120377030C94EB020C9412030C94F8
:1002800025030C94DD030C9428030C94EE020C94CB
:10029000EF030C9465030C9480010C9488030C9478
:1002A000A8030C9480030C94CA030C944E030C9482
:1002B000FA030C9477030C94400311241FBECFEF74
:1002C000D1E2DEBFCDBF00E00CBF12E0A0E0B2E0A3
:1002D000EAEAF9E000E00BBF02C007900D92AE30F1
:1002E000B107D9F722E0AEE0B2E001C01D92AF360F
:1002F000B207E1F70E9424040C94D3040C9400008C
:100300008A3049F09091C00095FFFCCF8093C600E1
:1003100080E090E008959091C00095FFFCCF9DE0B3
:100320009093C600EFCF9093C5008093C40086E001
:100330008093C20088E18093C10008959091C0002D
:1003400095FFFCCF8093C60008958091C00087FF81
:10035000FCCF8091C60008958091C000881F882737
:10036000881F0895FC012081222351F0319690913D
:10037000C00095FFFCCF2093C60021912111F7CF3B
:10038000089580E092E090936C0280936B0210924B
:10039000C50082E38093C40086E08093C20088E1B8
:1003A0008093C1000895E2E2F2E010828FEF818332
:1003B00012821092B90088E48093B80085E080939F
:1003C000BC000895E2E2F2E010829FEF9183128276
:1003D0001092B90098E49093B800880F81608093E0
:1003E000BA00109266021092650210926402109296
:1003F0006302109268021092670210922602109215
:10040000250285EC8093BC000895909122029D7F87
:1004100081E009F080E0089580912302089565311C
:1004200028F02CC025E02A95F1F700002091220247
:10043000322F3D7FB9F74093240270E061157105BA
:1004400059F0DC01EFE4F2E0AB01415B5D4F8D91CF
:1004500081934E175F07D9F7709368026093670224
:10046000109226021092250281E08093220222300F
:1004700039F085EA8093BC0080E0089581E008951A
:1004800080912502909126029C012F5F3F4F30936F
:10049000260220932502FC01E15BFD4F80818093C1
:1004A000BB0085E88093BC0080E00895643110F0C3
:1004B00080E00895109266021092650270E07093D9
:1004C000640260936302880F816004C095E09A958E
:1004D000F1F7000090912202292F2D7FB9F7409368
:1004E000240280934F0221E030E030936802209391
:1004F00067021092260210922502923041F081E0AC
:100500008093220285EA8093BC0081E0089581E017
:100510008093220280912502909126029C012F5FF8
:100520003F4F3093260220932502FC01E15BFD4FF3
:1005300080818093BB0085E88093BC00E6CF653165
:1005400050F4E62FF0E0EE0FFF1FE95DFD4F9183C1
:10055000808381E0089580E008956531C8F470E0FB
:100560006115710559F0DC01EFE4F2E09B01215BBC
:100570003D4F8D918193E217F307D9F7709368028D
:1005800060936702109226021092250281E008957E
:1005900080E008951F920F920FB60F9211240BB6B0
:1005A0000F922F933F934F935F936F937F938F930C
:1005B0009F93AF93BF93EF93FF938091B900887F90
:1005C00090E0893C910570F5FC018827EE58FF4FBB
:1005D0008F4F0C94CB0485E08093220280916702B8
:1005E00090916802209125023091260201972817E8
:1005F00039070CF003C180912502909126029C01DD
:100600002F5F3F4F3093260220932502FC01E15BD0
:10061000FD4F80818093BB0088EF8093230285EC9F
:100620008093BC00FF91EF91BF91AF919F918F910B
:100630007F916F915F914F913F912F910F900BBEE2
:100640000F900FBE0F901F90189583E080932202A9
:1006500020912502309126028091670290916802D4
:10066000281739070CF4CAC080912402882309F4A2
:10067000D7C08FEF8093230285EA8093BC00D2CF4E
:1006800080912402882309F4D4C08091B900887F26
:100690008093230285EA8093BC00C4CF84E08093DA
:1006A0002202809163029091640220916502309150
:1006B00066020197281739070CF4AECF88EF8093B4
:1006C000230285E88093BC00ADCF809165029091B4
:1006D00066029C012F5F3F4F3093660220936502B4
:1006E0002091BB00FC01E25FFD4F2083DACF8FEF4A
:1006F000809323021092220285EC8093BC0092CF5B
:10070000109223021092220285E98093BC008ACFC6
:100710008FEF80932302E0910E02F0E0EE0FFF1FB7
:10072000E95DFD4F80819181892BC9F1E0910E0235
:10073000F0E0EE0FFF1FE95DFD4F0190F081E02D2D
:1007400060916302709164028EE092E0199527C077
:1007500080916502909166029C012F5F3F4F30931C
:100760006602209365022091BB00FC01E25FFD4F11
:1007700020838091630290916402019690936402B9
:1007800080936302809165029091660244970CF019
:1007900095CF42CF8091B900887F80932302109239
:1007A0006402109263021092660210926502109227
:1007B000220285EC8093BC0035CF80916502909138
:1007C00066029C012F5F3F4F3093660220936502C3
:1007D0002091BB00FC01E25FFD4F208345CF86E006
:1007E00080932202809165029091660244970CF0FA
:1007F00065CF12CF82E08093220214CF8091250230
:10080000909126029C012F5F3F4F30932602209348
:100810002502FC01E15BFD4F80818093BB004ECF40
:10082000109222028FEF8093230285E98093BC000F
:10083000F9CE109222028091B900887F8093230222
:1008400085E98093BC00EECECF93DF9300D0CDB787
:10085000DEB7F8940E94C1010E94D301789482E02F
:10086000E82E93E0F92E04E00E94A501873669F195
:10087000883608F469C08D3609F47AC0833709F0E8
:100880005FC00E94A501880F8983FA820E94A5019A
:100890008B8340E063E0CE0101960E940F0204C00A
:1008A00025E02A95F1F700000E9405028823C1F394
:1008B0000E940C028F3F09F443C00E940C020E9468
:1008C0009E010E94A501873699F60E94A501182F66
:1008D000880F8983EA8240E062E0CE0101960E949F
:1008E0000F0204C095E09A95F1F700000E940502FE
:1008F0008823C1F30E940C028F3FF9F62FEF81EE9F
:1009000094E0215080409040E1F700C0000040E0BA
:1009100061E0812F0E94560204C025E02A95F1F77C
:1009200000000E9405028823C1F30E940C028F3F41
:1009300021F60E949E0180910E020E949E0194CF9A
:100940008FEF0E949E0190CF8136D1F719820A83E2
:1009500040E062E0CE0101960E940F0204C085E0F3
:100960008A95F1F700000E9405028823C1F3A0CF09
:10097000198281E08A8340E062E0CE0101960E9404
:100980000F0204C085E08A95F1F700000E9405027D
:100990008823C1F38DCFEE0FFF1F881F8BBF0790F9
:0A09A000F691E02D1994F894FFCFB2
:0E09AA000000000200000000800100000000BC
:00000001FF
