:100000000C9465010C9486010C9486010C94860175
:100010000C9486010C9486010C9486010C94860144
:100020000C9486010C9486010C9486010C94860134
:100030000C9486010C9486010C9486010C94860124
:100040000C9486010C9486010C9486010C94860114
:100050000C9486010C9486010C9486010C94860104
:100060000C9486010C9486010C9486010C948601F4
:100070000C9486010C9486010C9486010C948601E4
:100080000C9486010C9486010C9486010C948601D4
:100090000C9486010C9486010C9486010C94FB024E
:1000A0000C9486010C9486010C9486010C948601B4
:1000B0000C9486010C9486010C9486010C948601A4
:1000C0000C9486010C9486010C9486010C94860194
:1000D0000C9486010C9486010C9486010C94860184
:1000E0000C948601B10343034303430343034303D7
:1000F00043034303590343034303430343034303BA
:10010000430343032B0443034303430343034303D6
:10011000430343035603430343034303430343039C
:100120004303430371034303430343034303430371
:100130004303430359034303430343034303430379
:100140004303430371034303430343034303430351
:100150004303430371034303430343034303430341
:10016000430343037F034303430343034303430323
:100170004303430371034303430343034303430321
:1001800043034303960343034303430343034303EC
:10019000430343030E044303430343034303430363
:1001A0004303430320044303430343034303430341
:1001B0004303430320044303430343034303430331
:1001C0004303430320044303430343034303430321
:1001D0004303430320044303430343034303430311
:1001E00043034303D9034303430343034303430349
:1001F00043034303FB034303430343034303430317
:1002000043034303D9034303430343034303430328
:1002100043034303FB0343034303430343034303F6
:1002200043034303B9034303430343034303430328
:10023000430343031C0343034303430343034303B5
:10024000430343031C0343034303430343034303A5
:10025000430343031F034303430343034303430392
:1002600043034303A80343034303430343034303F9
:1002700043034303A8030C941C030C9490010C94B7
:1002800043030C9456030C949E010C940E040C949E
:1002900059030C9488010C941F030C9420040C94B3
:1002A00096030C94B1010C94B9030C94D9030C94EB
:1002B00097010C94B1030C94FB030C947F030C94F2
:1002C0002B040C94A8030C94710311241FBECFEFD0
:1002D000D1E2DEBFCDBF00E00CBF12E0A0E0B2E093
:1002E000ECE0F9E000E00BBF02C007900D92AE30E9
:1002F000B107D9F722E0AEE0B2E001C01D92A1370C
:10030000B207E1F70E9455040C9484040C94000099
:10031000623009F00895FC01818180930F020895F5
:10032000613009F0089580910F0285B90895613018
:1003300009F0089580B180930E020895CF93DF9362
:100340001F92CDB7DEB7613021F00F90DF91CF91D2
:10035000089580910E028983CE0101960E94DE02EB
:10036000F4CF8A3049F09091C00095FFFCCF809384
:10037000C60080E090E008959091C00095FFFCCF0A
:100380009DE09093C600EFCF9093C5008093C4008A
:1003900086E08093C20088E18093C1000895909127
:1003A000C00095FFFCCF8093C60008958091C000E7
:1003B00087FFFCCF8091C60008958091C000881F00
:1003C0008827881F0895FC012081222351F031964F
:1003D0009091C00095FFFCCF2093C6002191211180
:1003E000F7CF089580E092E090936E0280936D02C3
:1003F0001092C50082E38093C40086E08093C2001F
:1004000088E18093C1000895E4E2F2E010828FEF6A
:10041000818312821092B90088E48093B80085E04D
:100420008093BC000895E4E2F2E010829FEF918394
:1004300012821092B90098E49093B800880F8160FE
:100440008093BA00109268021092670210926602BE
:100450001092650210926A021092690210922802AC
:100460001092270285EC8093BC000895909124029D
:100470009D7F81E009F080E0089580912502089534
:10048000653128F02CC025E02A95F1F70000209175
:100490002402322F3D7FB9F74093260270E06115A8
:1004A000710559F0DC01E1E5F2E0AB014F5A5D4F17
:1004B0008D9181934E175F07D9F770936A0260930D
:1004C0006902109228021092270281E08093240290
:1004D000223039F085EA8093BC0080E0089581E005
:1004E000089580912702909128029C012F5F3F4F31
:1004F0003093280220932702FC01EF5AFD4F8081A0
:100500008093BB0085E88093BC0080E0089564314F
:1005100010F080E00895109268021092670270E077
:100520007093660260936502880F816004C095E055
:100530009A95F1F7000090912402292F2D7FB9F7A9
:10054000409326028093510221E030E030936A020A
:10055000209369021092280210922702923041F0F3
:1005600081E08093240285EA8093BC0081E00895B5
:1005700081E08093240280912702909128029C01BF
:100580002F5F3F4F3093280220932702FC01EF5A40
:10059000FD4F80818093BB0085E88093BC00E6CF4F
:1005A000653150F4E62FF0E0EE0FFF1FE75DFD4FE1
:1005B0009183808381E0089580E008956531C8F4D7
:1005C00070E06115710559F0DC01E1E5F2E09B0195
:1005D0002F5A3D4F8D918193E217F307D9F770930E
:1005E0006A0260936902109228021092270281E049
:1005F000089580E008951F920F920FB60F92112474
:100600000BB60F922F933F934F935F936F937F930C
:100610008F939F93AF93BF93EF93FF938091B90014
:10062000887F90E0893C910570F5FC018827EE58A1
:10063000FF4F8F4F0C947C0485E0809324028091BF
:10064000690290916A022091270230912802019755
:10065000281739070CF003C18091270290912802D6
:100660009C012F5F3F4F3093280220932702FC010B
:10067000EF5AFD4F80818093BB0088EF8093250265
:1006800085EC8093BC00FF91EF91BF91AF919F915A
:100690008F917F916F915F914F913F912F910F902B
:1006A0000BBE0F900FBE0F901F90189583E08093A4
:1006B00024022091270230912802809169029091B2
:1006C0006A02281739070CF4CAC0809126028823D1
:1006D00009F4D7C08FEF8093250285EA8093BC0090
:1006E000D2CF80912602882309F4D4C08091B9002A
:1006F000887F8093250285EA8093BC00C4CF84E084
:100700008093240280916502909166022091670295
:10071000309168020197281739070CF4AECF88EFA3
:100720008093250285E88093BC00ADCF809167025D
:10073000909168029C012F5F3F4F30936802209395
:1007400067022091BB00FC01E05FFD4F2083DACF00
:100750008FEF809325021092240285EC8093BC00D9
:1007600092CF109225021092240285E98093BC005A
:100770008ACF8FEF80932502E0911002F0E0EE0F18
:10078000FF1FE75DFD4F80819181892BC9F1E091C9
:100790001002F0E0EE0FFF1FE75DFD4F0190F081CA
:1007A000E02D609165027091660280E192E01995FA
:1007B00027C080916702909168029C012F5F3F4F94
:1007C00030936802209367022091BB00FC01E05F38
:1007D000FD4F20838091650290916602019690936F
:1007E0006602809365028091670290916802449747
:1007F0000CF095CF42CF8091B900887F809325027D
:1008000010926602109265021092680210926702BE
:100810001092240285EC8093BC0035CF8091670252
:10082000909168029C012F5F3F4F309368022093A4
:1008300067022091BB00FC01E05FFD4F208345CFA4
:1008400086E0809324028091670290916802449729
:100850000CF065CF12CF82E08093240214CF8091F8
:100860002702909128029C012F5F3F4F309328026E
:1008700020932702FC01EF5AFD4F80818093BB003B
:100880004ECF109224028FEF8093250285E980934A
:10089000BC00F9CE109224028091B900887F809329
:1008A000250285E98093BC00EECE84B18FEF84B938
:1008B00081B111B815B8F89463E088E891E00E941E
:1008C000D00264E080E991E00E94D00261E087E913
:1008D00091E00E94D00262E08EE991E00E94D00295
:1008E00081E00E941302789483B7816083BF88956A
:1008F00083B78E7F83BFF8CFEE0FFF1F881F8BBF9C
:0C0900000790F691E02D1994F894FFCFB9
:0E090C000000000200000000B1010000000029
:00000001FF
